:400000000080002011000000710A0000710A000008B5044B1A6803F53F5302331A6000F04DFD00BFFA46004010B5054C237833B9044B13B10448AFF300800123237010BD37
:400040007081FF1F0000000028450000084B10B51BB108490848AFF300800848036803B910BD074B002BFBD0BDE81040184700BF000000007481FF1F28450000C880FF1FD8
:400080000000000008B500F08DFB00F0C5FA08BD00EBC100704700BF2DE9F047A6B080460021FFF7F5FF0646006801F061FB04460D46706801F05CFB06460F4601214046FA
:4000C000FFF7E6FF8246006801F052FB80468946DAF8040001F04CFBCDE90401CDE90289CDE9006722462B46044906A802F064FE06A800F0C9FF26B0BDE8F0873045000006
:4001000040687047806870470268836801FB03F102EB8100704700BF70B590B0054600262846FFF7EDFF86421DD200242846FFF7E9FF844212D231462846FFF7E5FF50F89A
:40014000240001F015FB02460B460849684602F033FE684600F098FF0134E7E7044800F093FF0136DCE710B070BD00BF50450000F045000000EBC100704700BF2DE9F04FB2
:4001800083B083468A4601920027012F2AD80025012D25D839460198FFF7ECFF4FEA850800EB0806002340F825300024012C15D839465846FFF76CFF814621465046FFF759
:4001C00067FF50F8081059F8240001F065FE0146306801F059FD30600134E7E70135D7E70137D2E703B0BDE8F08F00BF2DE9F041074688460026012E0FD80024012C0AD86B
:4002000004EB4605414657F8250001F045FE47F825000134F2E70136EDE73846BDE8F0810268836801FB03F102EB8100704700BF10B50446037B23B1006810B108B101F0E7
:4002400013F9002323606360A360237310BD00BF70B5044611B115460E4622B92046FFF7E7FF002070BD007B38B123682BB16368994202D1A3689A4217D02046FFF7D8FF55
:4002800005FB06F0B0F1FE5F01D8800001E04FF0FF3001F0EDF8206018B96060A060207370BD6660A5600120207370BD4368806800FB03F0704700BFF8B506460F460024E6
:4002C0003046FFF7F3FF844209D23568394655F8240001F0E1FD45F824000134F0E73046F8BD00BF10B40022012A0AD80023012B05D803EB420440F824100133F7E7013248
:40030000F2E710BC704700BF08B50021FFF7EAFF08BD00BF10B50446FFF7F6FF204610BD70B505460E4600242846FFF7BFFF844204D22B6843F824600134F5E770BD00BF3F
:4003400008B50021FFF7ECFF08BD00BF10B5044600230360436083600373FFF779FF2046FFF7EEFF204610BD806801FB0020704710B50468FFF7F8FF04EB800010BD00BFEB
:4003800010B50468FFF7F0FF04EB800010BD00BF2DE9F04F83B080468A469346FFF7B2FE04465046FFF7ACFE844248D14046FFF7A7FE04465046FFF7A5FE02462146584649
:4003C000FFF746FF019000283BD000274046FFF797FE874235D200265046FFF793FE86422BD2324639465846FFF7CAFF0023036000244046FFF786FE84421CD22246394655
:400400004046FFF7B5FF0546324621465046FFF7AFFF0168286801F03FFD8146324639465846FFF7ADFF05464946006801F02CFC28600134DDE70136CEE70137C6E7002334
:400440000193019803B0BDE8F08F00BFF0B599B062B600F0FFFDFFF715FE4E4800F014FE14A8FFF757FF10A8FFF754FF0CA8FFF751FF002114A8FFF77DFE4FF07E5505605E
:400480004FF080444460012114A8FFF773FE424F07604FF081464660002110A8FFF76AFE3E4B03603E4B4360012110A8FFF762FE3C4B03604FF0824343600CAA10A914A871
:4004C000FFF75CFE384800F0DFFD0CA8FFF7E4FD4FF07C510CA8FFF789FE344800F0D4FD0CA8FFF7D9FD324800F0CEFD0222114608A8FFF72BFF0222114604A8FFF726FF19
:40050000022211466846FFF721FF002108A8FFF787FE0560002108A8FFF782FE4460012108A8FFF77DFE0760012108A8FFF778FE4660002104A8FFF773FE0460002104A8ED
:40054000FFF76EFE00234360012104A8FFF768FE0560012104A8FFF763FE44606A4604A908A8FFF715FF30B1124800F08DFD6846FFF7D2FD02E0104800F086FD4FF080410F
:400580006846FFF799FE0D4800F07EFD6846FFF7C3FDFEE758450000000040400000A0400000C0400000E040784500008445000098450000B8450000C4450000E04500004C
:4005C00008B500F071FB08BD08B500F0FFFD08BD08B500F033FB00F087FB0B2000F06CFB014800F053FB08BDC105000008B500F0ADFE00F00BFE0B2000F0F0FD014800F03C
:4006000031FE08BDC905000008B5FFF7E1FF08BD08B5FFF7EBFF08BD08B5FFF7F5FFFFF7F7FF08BD08B500F067FC00F0DFFB00F0B9FD08BD70B504464FF07E5101F0E8FD4E
:40064000F0B90021204601F0C5FDC8B900F0DCFB0646204601F08CF802460B460020094900F026FF04460D46304601F06FF822462B4601F0D1F801F0E1FA80B200F05AFBC7
:4006800070BD00BF0000F03F70B504464FF07E5101F0BEFDF0B90021204601F09BFDC8B900F0B2FB0646204601F062F802460B460020094900F0FCFE04460D46304601F029
:4006C00045F822462B4601F0A7F801F0B7FA80B200F036FB70BD00BF0000F03F70B504464FF07E5101F094FDF0B90021204601F071FDC8B900F064FD0646204601F038F811
:4007000002460B460020094900F0D2FE04460D46304601F01BF822462B4601F07DF801F08DFA80B200F0E4FC70BD00BF0000F03F70B504464FF07E5101F06AFDF0B9002164
:40074000204601F047FDC8B900F03AFD0646204601F00EF802460B460020094900F0A8FE04460D46304600F0F1FF22462B4601F053F801F063FA80B200F0C0FC70BD00BFCC
:400780000000F03F08B5FFF755FF08BD08B5FFF77BFF08BD08B5FFF7A1FF08BD08B5FFF7C7FF08BD10B5FFF73DFF4FF07C542046FFF7E8FF2046FFF7E9FF2046FFF7EAFF24
:4007C0002046FFF7EBFF10BDFEE700BFF0B40022174611E050F82760F3B226F0FF0608E001EB420511F812406D78A5550132013BDBB2002BF4D10137292FEBD9F0BC7047A7
:40080000064B1B78DBB203F00701054A11701B09013213704422034B1A707047CF0100496E5800407658004008B50A46002101F048FD08BD38B51722284B1A801823284A77
:40084000137019250232158002321370EF2102321180023213700222224B1A7008224FF040231A70032103F5007319701E4B1B78DBB21E490B701E4B1A8041F25122023BD1
:400880001A8000240CE01B4B1B7803F0010343EA440404F003044FF4F07000F0D5FD013D0DB1032CEFD115B90320FFF78DFF124B4FF480721A8007221A7000220F490A7098
:4008C0004820023108701A700222033B1A700C4A137843F00703137038BD00BF80400040824000400043004008010049A146004022420040254200400440004006400040C7
:40090000A243004008B501F0D1FC08BD38B572B6404A137843F00403137000240CE03E4D630019194A0011462A44084691882858FFF77AFF0134E4B2062CF0D900240BE001
:400940003548A20011194B0003449A8E196BD86AFFF7D8FF0134E4B2012CF1D92F494FF09040FFF733FF2E4A2E4B1A602E4A03F500731A6002F1884203F5C0731A602B4AD1
:4009800003F5D0631A602A4A137843F0020313701032137843F002031370264C237843F040032370A2F58632513A137843F010031370082220492148FFF7A4FF0A222049E2
:4009C0002048FFF79FFF08221F492048FFF79AFF08221F491F48FFF795FF08221E491F48FFF790FF1E4A137843F0080313701D4D61232B70FFF71EFF81232B7001221A4B5B
:400A00001A70FFF7FDFE0E2221461848FFF77AFF38BD00BFE8460040F4450000A800004884840484D80A0140444404000404048403500140A0430040181000480251004001
:400A400020100048C05100402C100048F251004034100048125100403C10004822510040224300400048004004000840B043004008B501F0DFFB03680C2B00D1FEE7FEE7BF
:400A800008B5C0B200F0B6FAFEE700BF08B5094B1A681044084BC31AB3F5805F02DC054B186005E001F0C6FB0C2303604FF0FF32104608BDCC80FF1FA881FF1F08B5104EFF
:400AC000104D16E029686B68AC68002204E051F8040B43F8040B0432A242F8D1E868002203E0002143F8041B04328242F9D11035013E002EE6D101F0A3FBFFF7A7FCFEE796
:400B000001000000B847000008B5104A104B1A60104A136843F40073136000230AE0032B03D80D4A52F8231000E00C490C4A42F8231001332F2BF2D90A4B1A780A4B1A70D6
:400B4000074A0A4B1A60FFF7E1FE08BD0004FA050CED00E014ED00E000000000710A00000080FF1FBC760040C080FF1F08ED00E0024A137843F08003137070477464004061
:400B8000014B1880704700BF04680040014B1880704700BF84680040014B1880704700BF44680040014B1870704700BF83640040014B1878704700BF63640040014B1888AD
:400BC00080B27047A468004008B501E0FFF7F6FFFFF7EEFF10F0100FF8D108BD10B5154A137803F0C00343F0090313701E32137843F001031370104C237843F0010323702A
:400C00004FF6FF70FFF7BCFF4FF6FF70FFF7BEFF0020FFF7C1FF0020FFF7C4FF00F01CFC237843F01003237000F01AFCFFF7CCFF10BD00BF746400409364004008B5054B0E
:400C40001B7823B9FFF7CAFF0122024B1A70FFF78FFF08BD8C81FF1F014B1B681864704708ED00E04001C0B2014B1870704700BF00E400E00122014B1A60704700E100E0DF
:400C80000122014B1A60704780E100E010B50446FFF7F6FF2046FFF7DFFF0720FFF7E2FFFFF7E8FF10BD00BF024B187800F00F00704700BF66650040014B1870704700BF11
:400CC0008665004008B50F20FFF7F6FFFFF7ECFF00F0C2FB034A137843F01003137000F0BFFB08BD9665004008B500F075F94FF4004000F023F9044B1B7813B90122024B51
:400D00001A70FFF7DFFF08BD8D81FF1F024A137843F08003137070477A640040014B1880704700BF18680040014B1880704700BF98680040014B1880704700BF5868004071
:400D4000014B1880704700BF78680040014B1870704700BF8E640040014B1878704700BF6E640040014B188880B27047B868004008B501E0FFF7F6FFFFF7EEFF10F0100F59
:400D8000F8D108BD08B5174A137803F0C00343F0090313702232137843F0010313700132137843F00103137045F6C050FFF7B6FF45F6C050FFF7B8FF0020FFF7BBFF002095
:400DC000FFF7BEFF0020FFF7C1FF00F045FB064A137843F01003137000F042FBFFF7C8FF08BD00BF7A6400409E64004008B5054B1B7823B9FFF7C6FF0122024B1A70FFF7A1
:400E000085FF08BD8E81FF1F014B188880B2704798680040024A137843F08003137070477F640040014B1880704700BF1C680040014B1880704700BF9C680040014B18809D
:400E4000704700BF5C680040014B1880704700BF7C680040014B1870704700BF8C640040014B1878704700BF6C640040014B188880B27047BC68004008B501E0FFF7F6FFDC
:400E8000FFF7EEFF10F0100FF8D108BD08B5184A137803F0C00343F00C0313701F32137843F0010313700132137843F00103137040F2CF70FFF7B6FF40F2CF70FFF7B8FF35
:400EC0004FF4E160FFF7BAFF40F26C70FFF7BCFF0020FFF7BFFF00F0BFFA064A137843F01003137000F0BCFAFFF7C6FF08BD00BF7F6400409C64004008B5054B1B7823B91B
:400F0000FFF7C4FF0122024B1A70FFF783FF08BD8F81FF1F024A137843F080031370704779650040014B1870704700BF85650040014B1878704700BF65650040014B1880FA
:400F4000704700BF086A0040014B188880B27047886A0040014B1880704700BF486A0040014B1880704700BF686A004008B501E0FFF7EAFFFFF7DCFF10F0400FF8D108BD5F
:400F800008B5134B1A7802F0F8021A701A7802F0FC021A70FFF7EAFF4FF40040FFF7DAFF4FF40040FFF7CAFF0020FFF7BBFFFFF7BFFF4FF40040FFF7D3FF00F04DFA054A3A
:400FC000137843F01003137000F04AFA08BD00BF796500409565004008B5054B1B7823B9FFF7CEFF0122024B1A70FFF793FF08BD9081FF1F01BE70477222074B1A702022B0
:40100000033B1A700622613B1A70472210331A700022B03B1A7070478B65004010B500F01BFA04460A4A137843F020031370033A137843F010031370A2F20112137843F024
:401040001003137000F032F8204600F009FA10BD9B65004008B5054B1B7823B9FFF7CCFF0122024B1A70FFF7D9FF08BD9181FF1F034B1B7813F0040FFAD1024B1870704712
:40108000676400404764004038B5074B1B782BB938BDFFF7EDFF0134A4B201E005460024285D0028F5D138BD9181FF1F054A137843F0020313701032137843F0020313701D
:4010C000704700BFA2430040024A137843F08003137070477E640040014B1880704700BF14680040014B1880704700BF94680040014B1880704700BF54680040014B188086
:40110000704700BF74680040014B1870704700BF8B640040014B1878704700BF6B640040014B188880B27047B468004008B501E0FFF7F6FFFFF7EEFF10F0100FF8D108BDF9
:4011400010B5164A137803F0C00343F0090313701C32137843F001031370114C237843F00103237045F6C050FFF7B6FF45F6C050FFF7B8FF0020FFF7BBFF0020FFF7BEFF61
:401180000020FFF7C1FF00F067F9237843F01003237000F065F9FFF7C9FF10BD7E6400409B64004008B5054B1B7823B9FFF7C8FF0122024B1A70FFF787FF08BD9381FF1FB5
:4011C000014B188880B2704794680040024B187800F00F00704700BF60640040014B1870704700BF8064004008B50F20FFF7F6FFFFF7ECFF00F030F9034A137843F010032B
:40120000137000F02DF908BD9064004008B500F00DF94FF4004000F0BBF8044B1B7813B90122024B1A70FFF7DFFF08BD9481FF1F014B1B685864704708ED00E04001C0B205
:40124000014B1870704700BF01E400E00222014B1A60704700E100E00222014B1A60704780E100E010B50446FFF7F6FF2046FFF7DFFF0720FFF7E2FFFFF7E8FF10BD00BF80
:40128000024A137843F080031370704778640040014B1880704700BF10680040014B1880704700BF90680040014B1880704700BF50680040014B1870704700BF89640040DE
:4012C000014B1878704700BF69640040014B188880B27047B068004008B501E0FFF7F6FFFFF7EEFF10F0100FF8D108BD10B5154A137803F0C00343F0090313702032137845
:4013000043F001031370104C237843F0010323704FF6FF70FFF7BCFF4FF6FF70FFF7BEFF0020FFF7C1FF0020FFF7C4FF00F094F8237843F01003237000F092F8FFF7CCFF8C
:4013400010BD00BF786400409964004008B5054B1B7823B9FFF7CAFF0122024B1A70FFF78FFF08BD9581FF1F024A137843F080031370704770640040014B1870704700BFB1
:4013800085640040014B1878704700BF65640040014B1880704700BF08680040014B188880B2704788680040014B1880704700BF48680040014B1880704700BF68680040E6
:4013C00008B501E0FFF7EAFFFFF7DCFF10F0400FF8D108BD08B5134B1A7802F0F8021A701A7802F0FC021A70FFF7EAFF4FF40040FFF7DAFF4FF40040FFF7CAFF0020FFF70A
:40140000BBFFFFF7BFFF4FF40040FFF7D3FF00F023F8054A137843F01003137000F020F808BD00BF706400409564004008B5054B1B7823B9FFF7CEFF0122024B1A70FFF73D
:4014400093FF08BD9681FF1F0230800803D000BF01380046FCD17047EFF3108072B6704780F31088704700BF00F000B800F016BF00F000B810B5002814BF04460124204615
:4014800000F004FF30B900F007F808B900F0CAFE8047F4E710BD0000024B1868BFF35F8F704700BF9881FF1F81F0004102E000BF83F0004330B54FEA41044FEA430594EAF4
:4014C000050F08BF90EA020F1FBF54EA000C55EA020C7FEA645C7FEA655C00F0E2804FEA5454D4EB5555B8BF6D420CDD2C4480EA020281EA030382EA000083EA010180EA7F
:40150000020281EA0303362D88BF30BD11F0004F4FEA01314FF4801C4CEA113102D0404261EB410113F0004F4FEA03334CEA133302D0524263EB430394EA050F00F0A780CB
:40154000A4F10104D5F1200E0DDB02FA0EFC22FA05F2801841F1000103FA0EF2801843FA05F359410EE0A5F120050EF1200E012A03FA0EFC28BF4CF0020C43FA05F3C01867
:4015800051EBE37101F0004507D54FF0000EDCF1000C7EEB00006EEB0101B1F5801F1BD3B1F5001F0CD349085FEA30004FEA3C0C04F101044FEA445212F5800F80F09A8094
:4015C000BCF1004F08BF5FEA500C50F1000041EB045141EA050130BD5FEA4C0C404141EB010111F4801FA4F10104E9D191F0000F04BF01460020B1FA81F308BF2033A3F1D4
:401600000B03B3F120020CDA0C3208DD02F1140CC2F10C0201FA0CF021FA02F10CE002F11402D8BFC2F1200C01FA02F120FA0CFCDCBF41EA0C019040E41AA2BF01EB045136
:40164000294330BD6FEA04041F3C1CDA0C340EDC04F11404C4F1200220FA04F001FA02F340EA030021FA04F345EA030130BDC4F10C04C4F1200220FA02F001FA04F340EA30
:401680000300294630BD21FA04F0294630BD94F0000F83F4801306BF81F480110134013D4EE77FEA645C18BF7FEA655C29D094EA050F08BF90EA020F05D054EA000C04BF67
:4016C0001946104630BD91EA030F1EBF0021002030BD5FEA545C05D14000494128BF41F0004130BD14F580043CBF01F5801130BD01F0004545F0FE4141F470014FF0000046
:4017000030BD7FEA645C1ABF194610467FEA655C1CBF0B46024650EA013406BF52EA033591EA030F41F4002130BD00BF90F0000F04BF0021704730B54FF4806404F13204CF
:401740004FF000054FF0000150E700BF90F0000F04BF0021704730B54FF4806404F1320410F0004548BF40424FF000013EE700BF42004FEAE2014FEA31014FEA02701FBF4A
:4017800012F07F4393F07F4F81F06051704792F0000F14BF93F07F4F704730B54FF4607401F0004521F0004120E700BF50EA010208BF704730B54FF000050AE050EA01027A
:4017C00008BF704730B511F0004502D5404261EB41014FF4806404F132045FEA915C3FF4DCAE4FF003025FEADC0C18BF03325FEADC0C18BF033202EBDC02C2F1200300FABB
:4018000003FC20FA02F001FA03FE40EA0E0021FA02F11444C1E600BF70B54FF0FF0C4CF4E06C1CEA11541DBF1CEA135594EA0C0F95EA0C0F00F0DEF82C4481EA030621EA05
:401840004C5123EA4C5350EA013518BF52EA033541F4801143F4801338D0A0FB02CE4FF00005E1FB02E506F00042E0FB03E54FF00006E1FB03569CF0000F18BF4EF0010E26
:40188000A4F1FF04B6F5007F64F5407404D25FEA4E0E6D4146EB060642EAC62141EA55514FEAC52040EA5E504FEACE2EB4F1FD0C88BFBCF5E06F1ED8BEF1004F08BF5FEAEB
:4018C000500E50F1000041EB045170BD06F0004646EA010140EA020081EA0301B4EB5C04C2BFD4EB0C0541EA045170BD41F480114FF0000E013C00F3AB8014F1360FDEBF40
:40190000002001F0004170BDC4F10004203C35DA0C341BDC04F11404C4F1200500FA05F320FA04F001FA05F240EA020001F0004221F0004110EBD37021FA04F642EB0601BC
:401940005EEA430E08BF20EAD37070BDC4F10C04C4F1200500FA04F320FA05F001FA04F240EA020001F0004110EBD37041F100015EEA430E08BF20EAD37070BDC4F120057A
:4019800000FA05F24EEA020E20FA04F301FA05F243EA020321FA04F001F0004121FA04F220EA020000EBD3705EEA430E08BF20EAD37070BD94F0000F0FD101F00046400069
:4019C00041EB010111F4801F08BF013CF7D041EA060195F0000F18BF704703F00046520043EB030313F4801F08BF013DF7D043EA0603704794EA0C0F0CEA135518BF95EA8B
:401A00000C0F0CD050EA410618BF52EA4306D1D181EA030101F000414FF0000070BD50EA410606BF1046194652EA430619D094EA0C0F02D150EA013613D195EA0C0F05D189
:401A400052EA03361CBF104619460AD181EA030101F0004141F0FE4141F470014FF0000070BD41F0FE4141F4780170BD70B54FF0FF0C4CF4E06C1CEA11541DBF1CEA135568
:401A800094EA0C0F95EA0C0F00F0A7F8A4EB050481EA030E52EA03354FEA013100F088804FEA03334FF0805545EA131343EA12634FEA022245EA111545EA10654FEA00264A
:401AC0000EF000419D4208BF964244F1FD0404F5407402D25B084FEA3202B61A65EB03055B084FEA32024FF480104FF4002CB6EB020E75EB030E22BFB61A754640EA0C00A4
:401B00005B084FEA3202B6EB020E75EB030E22BFB61A754640EA5C005B084FEA3202B6EB020E75EB030E22BFB61A754640EA9C005B084FEA3202B6EB020E75EB030E22BFCA
:401B4000B61A754640EADC0055EA060E18D04FEA051545EA16754FEA06164FEAC30343EA52734FEAC2025FEA1C1CC0D111F4801F0BD141EA00014FF000004FF0004CB6E724
:401B800011F4801F04BF01430020B4F1FD0C88BFBCF5E06F3FF6AFAEB5EB030C04BFB6EB020C5FEA500C50F1000041EB045170BD0EF0004E4EEA113114EB5C04C2BFD4EBB9
:401BC0000C0541EA045170BD41F480114FF0000E013C90E645EA060E8DE60CEA135594EA0C0F08BF95EA0C0F3FF43BAF94EA0C0F0AD150EA01347FF434AF95EA0C0F7FF4F0
:401C000025AF104619462CE795EA0C0F06D152EA03353FF4FDAE1046194622E750EA410618BF52EA43067FF4C5AE50EA41047FF40DAF52EA43057FF4EBAE12E74A0011D260
:401C400012F5001211D20DD56FF47873B3EB62520ED44FEAC12343F0004343EA505323FA02F070474FF00000704750EA013002D14FF0FF3070474FF00000704780F00040DC
:401C800002E000BF81F0004142001FBF5FEA410392EA030F7FEA226C7FEA236C6AD04FEA1262D2EB1363C1BFD218414048404140B8BF5B42192B88BF704710F0004F40F4C0
:401CC000000020F07F4018BF404211F0004F41F4000121F07F4118BF494292EA030F3FD0A2F1010241FA03FC10EB0C00C3F1200301FA03F100F0004302D5494260EB4000A9
:401D0000B0F5000F13D3B0F1807F06D340084FEA310102F10102FE2A51D2B1F1004F40EBC25008BF20F0010040EA03007047490040EB000010F4000FA2F10102EDD1B0FA2D
:401D400080FCACF1080CB2EB0C0200FA0CF0AABF00EBC25052421843BCBFD0401843704792F0000F81F4000106BF80F400000132013BB5E74FEA41037FEA226C18BF7FEAA4
:401D8000236C21D092EA030F04D092F0000F08BF0846704790EA010F1CBF0020704712F07F4F04D1400028BF40F00040704712F100723CBF00F50000704700F0004343F033
:401DC000FE4040F4000070477FEA226216BF08467FEA23630146420206BF5FEA412390EA010F40F4800070474FF0000304E000BF10F0004348BF40425FEA000C08BF704745
:401E000043F0964301464FF000001CE050EA010208BF70474FF000030AE000BF50EA010208BF704711F0004302D5404261EB41015FEA010C02BF84460146002043F0B64314
:401E400008BFA3F18053A3F50003BCFA8CF2083AA3EBC25310DB01FA02FC634400FA02FCC2F12002BCF1004F20FA02F243EB020008BF20F00100704702F1200201FA02FC51
:401E8000C2F1200250EA4C0021FA02F243EB020008BF20EADC7070474FF0FF0C1CEAD0521EBF1CEAD15392EA0C0F93EA0C0F6FD01A4480EA010C400218BF5FEA41211ED046
:401EC0004FF0006343EA501043EA5111A0FB01310CF00040B1F5000F3EBF490041EAD3715B0040EA010062F17F02FD2A1DD8B3F1004F40EBC25008BF20F00100704790F0FC
:401F0000000F0CF0004C08BF49024CEA502040EA51207F3AC2BFD2F1FF0340EAC250704740F400004FF00003013A5DDC12F1190FDCBF00F000407047C2F10002410021FA5D
:401F400002F1C2F1200200FA02FC5FEA310040F1000053EA4C0308BF20EADC70704792F0000F00F0004C02BF400010F4000F013AF9D040EA0C0093F0000F01F0004C02BFEB
:401F8000490011F4000F013BF9D041EA0C018FE70CEAD15392EA0C0F18BF93EA0C0F0AD030F0004C18BF31F0004CD8D180EA010000F00040704790F0000F17BF90F0004F38
:401FC000084691F0000F91F0004F14D092EA0C0F01D142020FD193EA0C0F03D14B0218BF084608D180EA010000F0004040F0FE4040F40000704740F0FE4040F4400070477E
:402000004FF0FF0C1CEAD0521EBF1CEAD15392EA0C0F93EA0C0F69D0A2EB030280EA010C49024FEA402037D04FF0805343EA111143EA10130CF000408B4238BF5B0042F18C
:402040007D024FF4000C8B4224BF5B1A40EA0C00B3EB510F24BFA3EB510340EA5C00B3EB910F24BFA3EB910340EA9C00B3EBD10F24BFA3EBD10340EADC001B0118BF5FEAE0
:402080001C1CE0D1FD2A3FF650AF8B4240EBC25008BF20F0010070470CF0004C4CEA50207F32C2BFD2F1FF0340EAC250704740F400004FF00003013A37E792F0000F00F01B
:4020C000004C02BF400010F4000F013AF9D040EA0C0093F0000F01F0004C02BF490011F4000F013BF9D041EA0C0195E70CEAD15392EA0C0F08D142027FF47DAF93EA0C0F9B
:402100007FF470AF084676E793EA0C0F04D14B023FF44CAF08466EE730F0004C18BF31F0004CCAD130F000427FF45CAF31F000437FF43CAF5FE700BF4FF0FF3C06E000BFC6
:402140004FF0010C02E000BF4FF0010C4DF804CD4FEA40024FEA41037FEA226C18BF7FEA236C11D001B052EA530C18BF90EA010F58BFB2EB030088BFC81738BF6FEAE17046
:4021800018BF40F0010070477FEA226C02D15FEA402C05D17FEA236CE4D15FEA412CE1D05DF8040B704700BF844608466146FFE70FB5FFF7C9FF002848BF10F1000F0FBDEB
:4021C0004DF808EDFFF7F4FF0CBF012000205DF808FB00BF4DF808EDFFF7EAFF34BF012000205DF808FB00BF4DF808EDFFF7E0FF94BF012000205DF808FB00BF4DF808ED41
:40220000FFF7D2FF94BF012000205DF808FB00BF4DF808EDFFF7C8FF34BF012000205DF808FB00BF08B5062000F0AAFD0120FEF727FC0000014B1868704700BF3081FF1F26
:402240000E4B70B51E460E4C0025E41AA410A54204D056F8253098470135F8E702F09AFA084B094C1E46E41AA4100025A54204D056F8253098470135F8E770BDA04700002A
:40228000A0470000A0470000A8470000024B0146186800F06BB800BF3081FF1F024B0146186800F017B800BF3081FF1F10B5431E0A44914204D011F8014B03F8014FF8E7B1
:4022C00010BD03460244934202D003F8011BFAE77047000038B50546002944D051F8043C0C1F002BB8BFE41801F0C8FB1E4A1368114613B96360146030E0A3420DD922680F
:40230000A018834201BF18685B681218226063600C6023E0A24203D813465A68002AF9D118681918A1420BD12168014458188242196013D110685268014419605A600DE00B
:4023400002D90C232B6009E021686018824201BF106852680918216062605C602846BDE8384001F08CBB38BDA081FF1F70B5CD1C25F0030508350C2D38BF0C25002D0646CF
:4023800001DBA94202D90C23336046E001F076FB234B1C681A462146A1B10B685B1B0ED40B2B03D90B60CC18CD501EE08C420BBF63684B681360636018BF0C4615E00C4623
:4023C0004968E9E7174C23681BB9304600F09EFC20602946304600F099FC431C18D0C41C24F00304A0420DD12560304601F047FB04F10B00231D20F00700C31A0ED05A42D2
:40240000E25070BD211A304600F080FC0130EBD10C233360304601F032FB002070BD00BFA081FF1F9C81FF1F2DE9F04788B0149F002B1E461299B8BF03F1004327F02007F9
:40244000B6BF1E4600232D23462F1446109DDDF84CA00B7003D0452F03D1013501E0032300E0022307AA049206AA03928DE828042246334600F058FD472F804602D1119BED
:40248000DB0728D5462F08EB050911D198F80030302B0AD1002200232046314601F0C4FF18B9C5F10105CAF80050DAF800309944002200232046314601F0B6FF08B93022C0
:4024C00002E0CDF81C9006E0079B994503D9591C07911A70F8E74046079B159AC8EB0303136008B0BDE8F087034673B50029B8BF494203F8022BB4BF2D222B220929427043
:402500001ADD0DF1070216460A2591FBF5F405FB1411092C01F1300102F8011D2146F4DC3031541E02F8011CB4421A460AD214F8012B03F8012BF7E71A463024214402F865
:40254000024B5970101A02B070BD00002DE9F04F91B00C46DDF8688016461F46054601F07BFA03681846099300F04AFC00230E93D8F800300A90073323F0070303F10802D7
:4025800094F81890D4F800B0C8F80020D3E90023C4E91223D4F84CA0D4F848802AF000430B934FF0FF32A74B40460B9901F06EFFA0B94FF0FF32A34B40460B9901F048FF80
:4025C00060B9002200234046514601F037FF10B12D2384F843309C4B9C4A0AE0424653464046514601F052FF002800F09281984B984AB9F1470F8CBF904698460323236169
:402600002BF0040323604FF0000A3DE0B9F1670F00F08A81B9F1470F00F0868123600193636800210DF13302059002920093424653460691CDF81090CDF80CE02846FFF759
:40264000F3FE09F0DF03472B804600F08481B9F1650F0D9900F28D8101394A4604F150000D91FFF741FF0E9A82468318012A236100F37C812268D10700F178819DF83330CC
:4026800013B12D2384F84330009733460FAA2146284600F09FF9013002D14FF0FF3096E123685A0501D4236965E0B9F1650F40F2D580D4E912010022002301F0B5FE78B3EF
:4026C0000123654A31462846B8470130E5D00E9B0D9A9A420BDB2368D80708D423689B0740F111814FF0000804F1190906E10A9B099A31462846B8470130CED04FF000086E
:4027000004F11A090E9B013B9845E7DA01234A4631462846B8470130BFD008F10108F1E70D9B002B29DC01234B4A31462846B8470130B2D00D9B23B90E9B13B92368D90740
:40274000CCD50A9B099A31462846B8470130A4D04FF0000904F11A0A0D9B5B42994509DA0123524631462846B847013095D009F10109F1E70E9B4246A7E00E9AA36D9A4222
:40278000A8BF1A46002A914606DC4FF0000A29EAE97904F11A0B11E01346314642462846B8470130F1D178E701235A4631462846B84701303FF471AF0AF1010AA36DC9EB99
:4027C00003029245F0DB08EB03090D9A0E9B9A420FDB2368DA070CD40E9B0D9A9844C9EB08089B1A9845A8BF9846B8F1000F08DC0FE00A9B099A31462846B8470130EBD166
:402800004BE743464A4631462846B84701303FF444AF4FF0000928EAE87804F11A0A09E00123524631462846B84701303FF435AF09F101090D9A0E9B9B1AC8EB03039945CE
:40284000EEDB4BE7FFFFEF7F364600003A4600003E46000042460000464600000E9A012A01DCDB0738D50123424631462846B84701303FF412AF0A9B099A31462846B847DD
:4028800001303FF40AAFD4E912010022002301F0CBFD20B14FF0000804F11A090EE00E9B08F10102013B19E001234A4631462846B84701303FF4F1AE08F101080E9B013BB3
:4028C0009845F1DB534604F1500231462846B84701307FF403AFE0E64246012331462846B8470130EED1D8E601234A4631462846B84701303FF4D1AE08F10108E3680F9AA0
:402900009B1A9845F0DBE0680F9B9842B8BF18465DE062680EA8531C0DF1340E4BF480637FF474AE062201E012B90122626075E6002106910DF133018DE80C0023600590DF
:402940004246CDF81090CDF80CE0029153462846FFF76AFD80460D9BD81C02DB626893421DDDA9F102095FFA89F970E60133236184E6B9F1660F14D10029636807DD216194
:4029800013B92268D2071DD501330B4419E013B92268D00701D5023313E0012311E04FF067090D9B0E9A934205DB22682361D10708D5013305E0002BD4BFC3F1020301230F
:4029C000134423610D9B4FF0000AA36556E611B0BDE8F08F2DE9F04791461F460A698B6806469342B8BF1346C9F8003091F843200C46DDF8208012B10133C9F800302368EB
:402A0000990642BFD9F800300233C9F80030256815F0060510D104F1190A07E00123524639463046C04701301AD00135E368D9F800209B1A9D42F1DB94F8433022680033F1
:402A400018BF012392060FD5E118302081F843005A1C94F845102244023382F8431003E04FF0FF30BDE8F08704F1430239463046C0470130F4D02268D9F80050E36802F09B
:402A80000602042A08BF5D1B2269A3680CBF25EAE57500259342C4BF9B1AED184FF000091A344D4509D00123224639463046C0470130D5D009F10109F3E70020BDE8F08727
:402AC0002DE9F04317460A7E85B06E2A984606460C460C9B01F1430E00F0AE8011D8632A22D009D8002A00F0BB80582A40F0CA8081F84520834955E0642A1ED0692A1CD0E3
:402B0000C0E0732A00F0B08009D86F2A2ED0702A40F0B8800A6842F020020A603EE0752A24D0782A3AD0ADE01A6801F14205111D1960136884F84230A8E021681A6811F045
:402B4000800F02D0111D196008E011F0400F02F10401196002D0B2F9003000E01368002B3CDA2D225B4284F8432037E021681A6811F0800F02D0111D196007E011F0400F2E
:402B800002F10401196001D0138800E01368227E5C496F2A14BF0A2208221BE078225A4984F845202268186812F0800F00F104051D6003D1550601D5038800E00368D007F9
:402BC00044BF42F0200222601BB9226822F0200222601022002084F8430001E049490A226568002DA56008DB206820F0040020602BB9002D7DD175460CE0002B79D0754605
:402C0000B3FBF2F002FB1033CB5C05F8013D03460028F5D1082A0BD12368DA0708D5236962689A42DEBF302305F8013C05F1FF35C5EB0E0323612EE008681A6810F0800F7A
:402C4000496903D0101D1860136808E010F0400F02F104001860136801D0198000E0196000232361754616E01A68111D1960156800216268284600F0F3FE08B1401B6060BF
:402C8000636804E004F1420584F8422001232361002384F84330CDF800803B4603AA21463046FFF797FE013002D14FF0FF3026E023692A4639463046C0470130F5D02368C5
:402CC0009B0710D5002504F1190907E001234A4639463046C0470130E7D00135E368039A9B1A9D42F2DBE068039B9842B8BF184605E00B7804F1420584F842308AE705B0C6
:402D0000BDE8F083484600005946000038B5064C0023054608462360FDF7B8FE431C02D1236803B12B6038BDA481FF1F1F2938B504460D4604D9162303604FF0FF3038BD44
:402D4000426C12B152F821304BB9204600F032F82A4601462046BDE8384000F019B8012B0CD0591C03D116230360012038BD0024284642F825409847204638BD002038BD45
:402D8000024B01461868FFF7D1BF00BF3081FF1F38B5074C0023054608461146236001F0BBFB431C02D1236803B12B6038BD00BFA481FF1F01F0A8BB0EB400B54FF40271FA
:402DC0009CB0ADF814106FF00041049107914FF6FF711DAB02900690084853F8042BADF81610006802A9019301F088F9029B00221A701CB05DF804EB03B070473081FF1F0C
:402E0000034613F8012B002AFBD1181A013870472DE9F74F03690C6980469C427FDC013C01F114074FEA840E00F1140606EB0E0357F82450019356F824300135B3FBF5F5D5
:402E400007EB0E09C5B34FF0000A3846B446D34650F8043B9AB205FB02A21B0C4FEA124A05FB03A392B2C2EB0B0BBCF800204FEA134A5A441FFA83FBDCF800308145CBEBF8
:402E8000134303EB224392B242EA03424FEA234B4CF8042BDCD256F80E306BB9019B043B9E421A4602D3C8F8104005E01268043B002AF8D1013CF3E7404600F0EEFF002809
:402EC0002BDB304601354FF0000E57F8042B036891B2C1EB0E0E120C99B27144C2EB134303EB214389B24FEA234EB94541EA034340F8043BE9D256F8242006EB840362B9C1
:402F0000043B9E421A4602D3C8F8104005E01268043B002AF8D1013CF3E7284600E0002003B0BDE8F08F00002DE9F04F456A95B08246219CCDE9022345B91020FFF7A6F9D4
:402F4000CAF82400456085600560C560DAF82430196859B15A68012393404A608B60504600F0C3FDDAF8243000221A60039BA04A002BBDBF01232360039B0023BCBF23F02B
:402F800000430393DDF80C80A8BF236028F000431B0D1B0593421DD142F20F73209A1360029B43B9934A944BC8F31300002814BF1846104600E09048229B002B00F0468577
:402FC000C37813B100F1080300E0C31C229A136000F03CBDDDE90245002200232046294601F022FA074658B1209A01231360229B002B00F01E8581481860013800F026BD5C
:4030000012AB019313AB009322462B46504600F0BFFFC8F30A56049056B1C5F3130343F07F51204641F44011A6F2FF3611971DE0139B129E1E4406F23243202B0ADD029AF1
:4030400006F21240C3F1400322FA00F008FA03F3184304E0C3F12000029B03FA00F0FEF765FB0123A1F1F871013E11930022644BFEF71EFA58A3D3E90023FEF7CDFB58A3A7
:40308000D3E90023FEF716FA044630460D46FEF75DFB55A3D3E90023FEF7BEFB02460B4620462946FEF706FA04460D4601F004FA0022834600232046294601F0BFF958B1C3
:4030C0005846FEF743FB02460B462046294601F0ABF908B90BF1FF3BBBF1160F0DD8DDE90223484901EBCB01D1E9000101F0C4F930B10BF1FF3B002300E00123109300E0F1
:403100001090129B9E1B731E079343BFC3F10008002307934FF00008BBF1000F06DB079BCDF82CB05B440793002705E00023CBEB0808CBF100070B931E9B092B28D8052B11
:40314000C4BF043B1E931E9BC8BF0025A3F10203D8BF0125032B20D8DFE803F0060E0204012302E0012308E000230A931F9B002B1DDD9946059321E000230A931F9B0BEB8E
:40318000030909F10103012B0593B8BF012315E0012500231E930A9501E001230A934FF0FF390022CDF8149012231F9206E04FF001094B46CDF81490CDF87C90DAF824405E
:4031C00000226260042101F114029A421CD86268490001326260F6E761436F63A787D23FB3C8608B288AC63FFB799F501344D33F0000F07F6A460000734600004746000006
:403200000000F83F804600006168504600F038FCDAF8243020601B680693059B0E2B00F25B81002D00F05881DDE90234BBF1000FCDE90E3430DD9F4A0BF00F034FEA2B1584
:4032400002EBC303E80618CBCDE908340CD5DDE90E01994B05F00F05D3E90823FEF706FC0324CDE9020100E00224934E6DB1E90708D5DDE90801D6E90023FEF7CDFACDE982
:40328000080101346D100836F0E7DDE90823DDE90201FEF7EBFB20E0CBF1000505B3DDE90E01844B05F00F0203EBC203D3E90023FEF7B2FACDE902017F4E2D110023022446
:4032C00055B1EA0705D5D6E90023FEF7A5FA013401236D100836F3E71BB1CDE9020100E00224109BE3B1DDE902560022734B2846314601F0A3F898B1059B8BB1B9F1000F82
:4033000040F3E6800BF1FF330893314600226C4B2846FEF781FA0134CDE902014E4602E0059ECDF820B02046FEF710FADDE90223FEF772FA634B0022FEF7BCF8A1F15073E2
:4033400004460C931D46D6B9DDE9020100225E4BFEF7AEF822460C9BCDE9020101F08CF8002840F03F820C99224601F10043DDE9020101F063F8002840F02B82A8E00A9A65
:403380004C4B711E002A49D003EBC103D3E9002300204E49FEF76AFB22462B46FEF788F8CDE90C01069CDDE9020101F085F80546FEF7CCF902460B46DDE90201FEF778F84C
:4033C000DDE90C23303504F8015BCDE9020101F035F8002840F01D83DDE9022300203749FEF766F8DDE90C2301F028F8002840F0D180069BE31AB3426ADADDE90C010022F3
:403400002F4BFEF709FA0022CDE90C01DDE902012B4BFEF701FACDE90201C4E703EBC1012246D1E900012B46FEF7F6F9069BCDE90C011D469C19DDE9020101F03DF80646C3
:40344000FEF784F902460B46DDE90201FEF730F8303605F8016BAC42CDE902014FF0000222D11A4BDDE90C01FEF724F802460B46DDE9020101F000F8002840F08B80DDE9F4
:403480000C2300201149FEF713F802460B46DDE9020100F0D3FFD8B114F8013C621E302B40F0B7821446F7E7054BFEF7B5F9CDE90201C0E780460000584700000000F03F0A
:4034C0000000244000001C40000014400000E03FDDE90E34CDE90234139B002B7CDBBBF10E0F79DCAB4B03EBCB03D3E900671F9B002B14DA059B002B11DC40F06C810022B8
:40350000A54B30463946FEF787F9DDE9022300F0A9FF059D2E46002840F05F8165E1069CDDE9028932463B4640464946FEF79EFA00F0C2FF0546FEF709F932463B46FEF7AB
:403540006BF90B46024649464046FDF7B1FF05F1300E069B04F801EBC3EB040E059B73452DD102460B46FDF7A5FF8046894602460B463046394600F061FF78B942464B46D4
:403580003046394600F050FF002800F04482EB0704D440E2DDF820B000E01C4614F8012C631E392A07D1069A9A42F6D1069930220BF1010B0A701A7801321A702BE20022FD
:4035C000764BFEF729F9002200238046894600F02BFF0028A6D01EE20A9A002A2BD01E9A012A0ADC119A12B103F2334302E0129BC3F136033D46444613E0059B5D1EAF426E
:40360000BFBF0B9BEA1B9B180B93059BB6BF2F467D1B0025002BA7BF4446059BC3EB08040023079A01211A4450469844079200F0FBFA064602E03D4644460A9E5CB1079B8E
:40364000002B08DDA342A8BF2346079AC3EB0808E41AD31A0793002F1DDD0A9BABB18DB131462A46504600F079FB049A01460646504600F0E2FA04990890504600F035FADB
:40368000089B04937A1B06D000E03A460499504600F064FB04900121504600F0C5FA0B9B05465BB31A460146504600F057FB1E9B0546012B18DC029B83B9039BC3F31303A3
:4036C00073B9039B23F000473F0D3F054FB1079B08F1010801330793012702E0002700E0029F0B9B73B100E000272B6905EB8303186900F04CFAC0F1200004E01E9B012BC6
:40370000D9DD0B9F0120079B184410F01F0008D0C0F12003042B02DDC0F11C0002E006D018461C30079B8044034404440793B8F1000F05DD42460499504600F05DFB049042
:40374000079B002B05DD29461A46504600F054FB0546109B23B32946049800F09EFB00281EDA00230A220499504600F0D5F90A9B0BF1FF3B0490002B00F05F813146002332
:403780000A22504600F0C8F9B9F1000F06463FDC3BE000BF804600000000144000002440059B002B2BDC1E9B022B28DDDDF81490B9F1000F11D129464B460522504600F0A0
:4037C000ABF901460546049800F067FB00280CDC03E0354600E000252E461F9B069C6FEA030B09E03546DDF820B0069B069A5C1C312313700BF1010B05960026F7E00A9B1D
:40380000DDF8149023B9069CB2E01E9B022BCFDC002C05DD31462246504600F0EDFA06469FB17168504600F02BF90446326906F10C01023292000C30FEF738FD0122214656
:40384000504600F0D9FA059000E00596029B069F03F00103079329460498FFF7D9FA3146044600F13008049800F017FB059A02902946504600F02DFBC36802463BB90146B4
:403880000A90049800F009FB0A9A034600E00123114650460A9300F028F90A9B53B91E9A42B9079A32B9B8F1390F2AD0029B002B1CDC1DE0029A002A04DB1BD11E9ACAB9EE
:4038C000079ABAB9002B13DD01220499504600F093FA2946049000F0E0FA002803DC07D118F0010F04D0B8F1390F0AD004F131087C1C0CE0002B07F101040BDDB8F1390FB0
:4039000003D139233B70013756E008F1010887F800806CE0069B2746E31A4B4504F8018C3BD000230A220499504600F0F5F8059B04909E424FF00A024FF0000331465046B5
:4039400004D100F0E9F80646059084E700F0E4F8002306460A220599504600F0DDF8059079E700230A220499504600F0D5F8049029460498FFF74CFA069B00F1300804F820
:40398000018BE31A4B45ECDB069B0596B9F1010FACBF4B4401331F46002601220499504600F02AFA2946049000F077FA002803DC15D118F0010F12D03C4614F8013C621E78
:4039C000392B09D1069B934204D10BF1010B3123069A02E01446F0E70133137007E03C4614F8013C621E302B01D11446F8E72946504600F07AF8059B6BB12EB19E4203D02B
:403A00003146504600F071F80599504600F06DF801E0DDF820B00499504600F066F80023209A23700BF101031360229B1BB11C6001E008480AE0069808E0B9F1000F3FF718
:403A4000E2AE1E9B022B7FF7DEAEB1E615B0BDE8F08F00BF46460000004870473481FF1F10B5C9B202449042034605D01C7801308C42F8D1184610BD002010BD70477047D9
:403A800070B5456A04460E463DB91020FEF7FEFB6062456085600560C560656AEB6843B1636ADB6853F8260078B1026843F8262017E021220421204600F0B8FA636AE86083
:403AC000DB68002BECD1002070BD012101FA06F56A1D9200204600F0A9FA0028F3D04660856000230361C36070BD70B5446A06460D463CB91020FEF7C9FB7062446084602D
:403B00000460C4603DB1736A6A68DB6853F82210296043F8225070BD2DE9F04106460C460D691F4601F1140E0023DEF80000013381B202FB0171000C0F0C02FB007089B2CB
:403B400001EB00419D424FEA10474EF8041BECDCD7B1A3689D4212DB616830460131FFF78FFF8046226904F10C01023292000C30FEF79CFB21463046FFF7B7FF444604EB45
:403B8000850301355F6125612046BDE8F081030C1B0413B90004102300E0002310F07F4F04BF0002083310F0704F04BF0001043310F0404F04BF80000233002803DB42007A
:403BC00003D5581C70471846704720207047036813F007020BD0D90722D49A074BBF5B089B08036003604CBF01200220704799B209B91B0C102213F0FF0F04BF1B0A083279
:403C0000190704BF1B090432990704BF9B080232D90702D45B0805D00132036010467047002070472020704710B50C460121FFF727FF01224461026110BD2DE9F74F1446AB
:403C40000A69236988469A42BEBF0B46A0461C46D8F81070D4F81090D8F80830D8F8041007EB09069E42C8BF0131FFF709FF00F114052B4605EB860C0022634502D243F86F
:403C8000042BFAE704F1140208F1140102EB890301EB87070093009B0192934257D9B2F800B0BBF1000F23D08946AE464FF0000859F8044BBEF800A0A3B20BFB03A34FEAE0
:403CC000144ADEF8004043444FEA14480BFB0A84F24604EB13449BB243EA04434F454FEA14484AF8043B01D9D646E1E7CEF80480019B0432B3F802A0BAF1000F21D02C4673
:403D000089462B684FF00008B9F800E0B4F802B09BB20AFB0EBEA346F04443EA08434BF8043B59F8043BB4F804E01B0C0AFB03E34F4503EB18434FEA134801D95C46E3E7CD
:403D400063600435A7E75CF8043D13B9013E002EF9DC066103B0BDE8F08F00002DE9F843154612F0030206460F4607D0214C013A002354F82220FFF7CFFE0746AD1036D081
:403D8000746A3CB91020FEF781FA7062446084600460C460D6F82480D8F808404CB940F271213046FFF740FF04460023C8F8080003604FF00008EB070AD5394622463046A3
:403DC000FFF73BFF814639463046FFF78EFE4F466D100CD0206808B10446ECE7224621463046FFF72AFF2060C0F80080F4E73846BDE8F883484700002DE9F0470C460746F9
:403E0000914626694FEA621A56444968A368751CAB4202DA01315B00FAE73846FFF730FE002380461A4600F11401534503DA41F823200133F9E72AEAEA73206901EB8303E7
:403E400019F01F0904F1140101EB800E14D0C9F1200C002208689A4600FA09F0024343F8042B51F8042B8E4522FA0CF2F2D8CAF8042042B1B51C06E0043B51F8042B8E4566
:403E800043F8042FF9D8013D3846C8F810502146FFF72BFE4046BDE8F08703690A6910B59B1A11D192001430143183180A4453F8044D52F8041D8C4202D007D3012010BD11
:403EC0009842F4D3002010BD184610BD4FF0FF3010BD2DE9F8430C460746114620461546FFF7DBFF061E08D131463846FFF7C8FD012303614661BDE8F883BCBF23462C46A4
:403F000038466168BABF1D4601260026FFF7B8FD2B69C660266905F1140904F1140101EB860709EB830800F114054FF0000C51F8042B59F8044B93B29C44A3B2240CC3EB43
:403F40000C03C4EB124202EB23429BB24FEA224CC84543EA02428E4645F8042BE7D8BE450ED25EF8041B8AB26244131403EB114392B242EA03424FEA234C45F8042BEEE72B
:403F800055F8043D0BB9013EFAE70661BDE8F8832DE9F3411C4601219046089E099DFFF76FFDC4F31302C4F30A5407460CB142F480120192B8F1000F19D002A840F8088D58
:403FC000FFF705FE009B48B1019AC0F1200102FA01F10B43C2407B61019200E07B61019B002B14BF02210121BB61396107E001A8FFF7EDFD019B01217B613961203034B1F0
:40400000A4F2334404443460C0F1350009E0A0F2324007EB810330601869FFF7B8FDC0EB41102860384602B0BDE8F08138B502FB01F42146FEF79AF9054618B1224600215D
:40404000FEF73FF9284638BD2DE9F0478E6882469E420C46914698463ED88A8912F4906F3AD02568096902236F1A656905EB450595FBF3F57B1C43449D4238BF1D465305AA
:404080000FD52946FEF772F9064698B13A462169FEF70CF9A38923F4906343F08003A38113E02A4600F039F9064670B921695046FEF710F90C23CAF80030A3894FF0FF30D1
:4040C00043F04003A381BDE8F08726613E44266046466561ED1BA560464528BF464649463246206800F0FEF8A36800209B1BA36023681E442660BDE8F08700002DE9F04FE1
:404100009DB003938B8980461C060D4616460DD50B695BB94021FEF729F92860286118B90C23C8F80030CDE040236B610023099320238DF82930DFF89CB130238DF82A30FC
:4041400037463C4614F8013B1BB9B7EB060910D003E0252BF9D02746F3E74B46324629464046FFF771FF013000F0A780099B4B4409933B78002B00F0A08000234FF0FF3254
:4041800004930793059206938DF853301A930126052221784E48FFF763FC671C049B38B14B4A3C46801A06FA00F018430490EFE7D90644BF20228DF853201A0744BF2B2219
:4041C0008DF8532022782A2A03D0079A00210A200BE0039A111D12680391002A10DA524243F00200079204900BE027463B780134303B092B03D800FB02320121F5E701B1B3
:4042000007923B782E2B1ED17B782A2B0AD1039B02371A1D1B680392002BB8BF4FF0FF33059310E0002319460593781C0A2407463A780130303A092A03D804FB012101233D
:40424000F5E703B10591032239782248FFF708FC40B14023CBEB000003FA00F0049B013718430490397806221B487E1C8DF82810FFF7F6FB88B1194B33B9039B073323F033
:4042800007030833039314E003AB00932A46144B04A94046FEF75AF907E003AB00932A460F4B04A94046FEF70BFCB0F1FF3F824603D0099B5344099342E7AB895B0601D49F
:4042C000099801E04FF0FF301DB0BDE8F08F00BF80470000864700008A4700004D25000049400000884210B501EB020301D8421E0BE09842FBD28118D21AD34204D013F8FA
:40430000014D01F8014DF8E710BD994204D011F8014B02F8014FF8E710BDF8B5074615460E4621B91146BDE8F840FEF71FB81AB9FDF7D0FF2846F8BD00F015F885420ED95B
:4043400029463846FEF712F8044650B131462A46FDF7ACFF31463846FDF7BCFF01E03046F8BD2046F8BD51F8040C0028BEBF091851F8043CC0180438704700004FF0FF3CC8
:4043800006E000BF4FF0010C02E000BF4FF0010C4DF804CD4FEA410C7FEA6C5C4FEA430C18BF7FEA6C5C1BD001B050EA410C0CBF52EA430C91EA030F02BF90EA020F002050
:4043C000704710F1000F91EA030F58BF994208BF90422CBFD8176FEAE37040F0010070474FEA410C7FEA6C5C02D150EA013C07D14FEA430C7FEA6C5CD6D152EA033CD3D019
:404400005DF8040B704700BF8446104662468C461946634600E000BF01B5FFF7B7FF002848BF10F1000F01BD4DF808EDFFF7F4FF0CBF012000205DF808FB00BF4DF808ED82
:40444000FFF7EAFF34BF012000205DF808FB00BF4DF808EDFFF7E0FF94BF012000205DF808FB00BF4DF808EDFFF7CEFF94BF012000205DF808FB00BF4DF808EDFFF7C4FFBD
:4044800034BF012000205DF808FB00BF4FEA410C7FEA6C5C02D150EA013C0AD14FEA430C7FEA6C5C02D152EA033C02D14FF0000070474FF0010070474FEA410212F5001279
:4044C00015D211D56FF47873B3EB625212D94FEAC12343F0004343EA505311F0004F23FA02F018BF404270474FF00000704750EA013005D111F0004008BF6FF000407047FD
:404500004FF00000704700BF024B58221A604FF0FF307047A481FF1F024B58221A604FF0FF307047A481FF1F00000000000000005B20252E326620252E3266205D0D0A5B14
:4045400020252E326620252E3266205D0D0A0000252E3266200000000D0A3D3D3D204649584544204D41545249582054455354203D3D3D0D0A00000041202A20423A0D0AA7
:40458000000000000D0A5363616C656420627920302E353A0D0A00000D0A3D3D3D2044594E414D4943204D41545249582054455354203D3D3D0D0A0044202A20453A0D0A1F
:4045C0000000000044796E616D6963206D756C7469706C79206661696C65640D0A0000000D0A5363616C656420627920322E303A0D0A0000004F00400C00305100404000BF
:4046000000000140001000140140000800400140000A004C01400002105001401000000060520040001000480600005001400810004810004300494E4600696E66004E41C4
:404640004E006E616E00300030313233343536373839414243444546003031323334353637383961626364656600496E66696E697479004E614E00504F534958002E000073
:40468000000000000000F03F000000000000244000000000000059400000000000408F40000000000088C34000000000006AF8400000000080842E4100000000D012634199
:4046C0000000000084D797410000000065CDCD41000000205FA00242000000E876483742000000A2941A6D42000040E59C30A2420000901EC4BCD64200003426F56B0C43A2
:404700000080E03779C3414300A0D8855734764300C84E676DC1AB43003D9160E458E143408CB5781DAF154450EFE2D6E41A4B4492D54D06CFF08044F64AE1C7022DB544CB
:40474000B49DD9794378EA4405000000190000007D000000000000000080E03779C34143176E05B5B5B89346F5F93FE9034F384D321D30F94877825A3CBF737FDD4F157593
:40478000232D302B2000686C4C0065666745464700000000F8B500BFF8BC08BC9E4670474D000000090B0000F8B500BFF8BC08BC9E46704729000000C8470000C880FF1F0D
:4047C000A80000003800000000000000A881FF1F00000000000000000000000000000000000000000000000000000000000000003446000000000000000000000000000018
:40480000000000000000000000000000000000000000000000000000000000000000000000000000000000000000000000000000D080FF1F7D4600008547000085470000AF
:4048400085470000854700008547000085470000854700008547000085470000FFFFFFFFFFFFFFFFFFFFFFFFFFFF00000000000000000000000000000000000000000000B2
:4048800000000000000000000000000000000000000000000000000000000000000000000000000000000000000000000000000000000000000000000000000000000000F8
:4048C00000000000000000000000000000000000000000000000000000000000000000000000000000000000000000000000000000000000000000000000000000000000B8
:404900000000000000000000000000000000000000000000000000000000000000000000000000000000000000000000000000000000000000000000000000000000000077
:404940000000000000000000000000000000000000000000000000000000000000000000000000000000000000000000000000000000000000000000000000000000000037
:020000040003F7
:0200000480007A
:40000000014F0040065200400864004004650040440001402D0101406702014046030140600401404B0501405506014042070140650801404A090140580A01404B0B014043
:400040005B0C0140440D01405B0E01402E0F01406314014046150140581601404E170140591801403B190140431A01404B1B0140064001400D4101400742014002430140C3
:40008000024401400A45014004460140064701400648014002490140064C0140074D014006500140015101400A4B0114081009301005110C7810800F830D856F870F890DEF
:4000C0008B0F8C0F8E0F856F860F88388B720302070209200A010B040D020E021402173C19301B081D301F04200227012801292C2B102D1C2E01310233013402353C360173
:400100003E503F015280540F5604580459045B045C905D905F018108831086028D088F109108931495109608970899029A049B01A201A501A702A901AB02AD01AF02B004E6
:40014000B202B303B408B518B601B704BB28D804D904DC99DF01008001200204040809080E2810021248170119501A021E291F2A2218238024202540272529802A142F2A84
:4001800032503304372638A0390A3A403D803E01580259105B886202700282028C04C023C264C41BCA7ECCEECE9FD60FD801E010070411011302160419021B011F08260231
:4001C000280129012B022D012E032F023001320233083503360437043B204030410649FF4AFF4BFF4DA04F045018580459045A045B045C995D095F01604062C064406540D1
:4002000066C068C06AC06CC06EC083028601871C89048B08900C9320940C9504970899019C069F10A11CA40AA510A91CAA01AD01B101B33CB401B502B60EB880B902BE103B
:40024000BF40C020C106C5D0C601C702C816C9FFCAFFCBFFCDAFCE0FCF04D018D405D804D904DA04DB04DC99DD99DF01E040E2C0E440E540E6C0E8C0EAC0ECC0EEC00004EB
:4002800008040AA10E1012181580172819801A051B401E421F082084210D230924082620272229082A102B412E102F0230243242350836A13704382239083F04400447084A
:4002C00049024A084E085140528859025A446F0182018B048F08902092229480950A968099409B049C029DA09E109F02A440A508AD80AF08C004C22DC4E6CA3FCCBFCE4744
:40030000D044D224D60BE210E4200202070F09940B601002153017C9199E1B601C011DCF1F302173240129FD2B022C01300231FF340138203E113F014052410349FF4AFFDB
:400340004BFF4DA04F0150185280580459045A045B045D995F016040628064406540668068406A806C406D206E808A0292049A019D01A702A801AE08AF05B008B204B3024C
:40038000B402B501B601B704BE40BF10C056C103C54CC620C73EC83BC9FFCAFFCBFFCDAFCE07CF01D018D40FD804D904DA04DB04DC99DD99DF05E040E280E440E540E680FC
:4003C000E840EA80EC40ED20EE80010105100A410C200D0210221580171018441A081D021E1A1F0222022680271828802A102B442C2232503304368038203908400441040A
:400400004528472049404D014E054F0554225520560457015C405E025F286604670470017C809028912892239482969099409B049C029D209E11A108A340A420A602A70382
:40044000B110B301B404B701C048C259C4C5CA55CC1ECE06D046D238D6F0D860DE10EE30020809020A030D010E0C100C1203150116201E20202023012401260E28102C01BD
:400480002E06310332203410360F39023A803E14580459045C115F0181808208830285A08A958B018CB38DE68E0C8F11902A928494409560978B9B189D489F86A403A68417
:4004C000A8B3AA04AD80AF65B00FB240B307B430B5F8B680B820BA02BB08BE54C043C106C50CC6E0C70BC819C9FFCAFFCBFFCEF0CF44D00CD401D804D904DA04DB04DC11E3
:40050000DD11DF01E6C0EA40EB02003001400342045208010BA00C010D800E20103012081568170119841B221C081F4821042228244027402B022F40322833403608381229
:400540003A043B823C203D404010430248204A0852045310581059845B02840490289120922093019480958096C09B049C029D309E01A204A340A704C0DBC2BCC4F6CA8845
:40058000CC4ECE3FD003D204D60FE402EE0105180A010D1813201602190C1A021D012A012B032D1431013201331C35203602370239083E404030410649FF4AFF4BFF4DA068
:4005C0004F0450185280580459045A045B045C925D995F01604062C06440654066C068C06AC06CC06EC0830185A38608875C8A048DC58E018F3A900491FE93019404950E90
:4006000097F0997F9A019C04A602AA02AC04AD96AF68B001B402B5FFB60CBE10BF10C020C106C5D1C702C813C9FFCAFFCBFFCDAFCE0FCF04D018D405D804D904DA04DB0469
:40064000DC09DD99DF01E040E2C0E440E540E6C0E8C0EAC0ECC0EEC00008014002040704080209200A120E080F20120813481510180219801A041B021D4820082404268011
:4006800027782A802C012F043011310432053310350236803720380239083B443F44400441044210470849014A084B084E08520859015A045B40750291509404970898029B
:4006C00099049B04A120A508A702A850AD40B010B140B210C047C26FC447CA38CCB7CE5BD044D224D60BE402E802EC0402020C060F0212011E041F01210326013001310387
:4007000036064013410649FF4AFF4BFF4DA04F0450185280580459045A045B045C995D995F01604062C06440654066C068C06AC06CC06EC0800883048604870288048B01B6
:400740008C02960197019E02AB02AE01B004B208B302B401B501B602B704BC82BE14BF10C013C106C5D0C610C752C83AC9FFCAFFCBFFCDAFCE0FCF04D018D407D804D904BD
:40078000DA04DB04DC99DD99DF05E040E2C0E440E540E6C0E8C0EAC0ECC0EEC00280030204020510062007010A010B400C080F02102015C019011A011C201D401E8820402C
:4007C0002410270929012F043280370438403C043D303F0241484340450C474048044C084D01540C5520562057095D015EA86C016D8072407D088601918093409640980298
:4008000099149B049E209F08A020A110A280A404A508A709B402B544B610C0F9C2A9C484CA21CC48CEE8D05AD224D6F0DE40E008E810010607010A010C0414041702250174
:400840002A033004320133013402350437024053410649FF4AFF4BFF4DA04F0450185407580459045A045B045C225D295F01604062C06440654066C068C06AC06CC06EC099
:40088000810183028601870989018A048D088F10930395109B049F18A108A504A602A902AD09B004B118B402B504B601B703BDA2C053C106C5D5C610C702C81BC9FFCAFF9F
:4008C000CBFFCDAFCE0FCF04D018D804D904DA04DC99DD09DF01E040E2C0E440E540E6C0E8C0EAC0ECC0EEC000100220060207040AC00C010E200F40102016081A011B22AC
:400900001C501E041F042140221023412690272029022B2A2E0430223248370438203B493E0A402041084508482049014A084B404E084F4052285C405D015F287820902088
:400940009101967199129A0A9B049C219D019E20A002A110A404A6A8A701B101C0C6C220C444CA4FCC4FCECFD042D23CD6F0DE0403040518060208020C010F10120116029E
:4009800017011B201C041F0A2106220126042A012E022F2130013106320233013520360437183A0A3C8A3F044030410249FF4AFF4BFF4DA04F045018528054075804590465
:4009C0005A045B045C995D925F05604062C06440654066C068C06AC06CC06EC096029E029F01A601B401B501B602C030C102C5D0C620C715C83AC9FFCAFFCBFFCDAFCE0FB3
:400A0000CF04D018D280D804D904DA04DB04DC29DD22DF01E040E2C0E440E540E6C0E8C0EAC0ECC0EEC00008030A0A510E100F02100212681620182019821B0A1D101F80CD
:400A4000200421412204270428012A402B8032A837403804398241204304452047044D015530560A59815A287002774078208D40C007C2ADC42FCA09CC1ECE0BD066D60FCA
:400A8000DE04040B059406040760080809730A01100C119E12021360140C16011B0F1DCF1F30200721FD2302253027C92A0F300F35FF3F104053410249FF4AFF4BFF4DA06E
:400AC0004F015018580459045A045C095D095F016040628064406540668068406A806C406D206E8083068B019008910199029C03A401AC03AE0CB004B102B201B304B4087E
:400B0000B602B701B888BE14BF41C013C102C52CC640C73EC83BC9FFCAFFCBFFCDAFCE07CF01D018D40FD804D904DA04DB04DC99DD99DF05E040E280E440E540E680E840B9
:400B4000EA80EC40ED20EE80010803040AA00E400F021040131016111A801D881E442220264127202880290430813120372138083A103B203F2241284528460248014F06EF
:400B8000562957105D105E86660867047F10888189108B01900892209310968098C0990C9A129B059C019E20A001A120A480A580A620A820AC81AE02AF02B508C006C29C19
:400BC000C4AACA03CCADCEA6D076D208D6F0D860DE40EE0A0301051C080109010A020B1C0D01111C14021510160118011A021B201C011E0A23102504260427082B022D04D9
:400C00002F08320333013408353C360437023A083F04540F5604580459045B045C995D905F01843D8814890E8A298BF08E029031920C942995969614976899C59B3A9DA343
:400C40009E409F5CA01CA17FA701A80DA9FEAA30AB01B040B1FFB23CB403BF01C002C540C9FFCA07CBFFCC40CD20CEF0CF05D008D804D904DA04DC09DD01DF01E040E1A8C0
:400C8000E240E32000800108030405100AA00B010D080E09104013101420188019281A401B1C1D1C1E01208025702610272128402B542C812E283250330435043620370201
:400CC00038283A083B103DA03F06432048104B025F6661806302660184028708902892209345948096C097029A109B049C029D309E019F01A204A360A410A580A610A7043B
:400D0000A940AA20AE10AF4CB312C047C2EDC42ACAF7CCEECEF4D004D6F0D880EA02EC0100140242040708070E18101A1285161819031A201E18201824092503264228188E
:400D400029012B022D012E202F0230073102322034C03501361839023B083E143F104045410642034402450E46C0480949FF4AFF4BFF4C624DA04EF04F41500C54185804B3
:400D800059045A045B045C115D115F016640670269106A306B106D106E106F1288148A288E0392019401980C9A309C3CA41CA830A901AA0CAC28AE14B001B202B501B63CDD
:400DC000BE01BF10D280D804D904DB04DC09DD90DF010180020404280502060109020A2A0D010E520F081010135014A017501A221B011D201E411F042308261827502920E6
:400E00002E102F1937103A013B02448045244E0A4F0857105E0165406708710287089208950896029740981099E49E84A604A710A920AF20C0F3C2FFC4F7CA74CC20D0E0C6
:400E4000D230D680D830E00805CC07120C040DCC0E020F2111BB13441580171F180219771A052406250827F12806300631F0330F3601580459045C915F01810882E6841860
:400E800085048808890C8C408D019079910192829419950196E498E7990E9A189E019F02A060A421A502A70CA8FFA90EAC10AD0CAF02B098B101B21FB30EB478BA2AD6028F
:400EC000D711D804D904DB04DC11DD10DF01004004400620074808200D080E45102812081420150216011710184019021A011D081E441F1920802104235025042607274012
:400F00002A042F1930103104320134013608375039083B403D403E2A5E206C3C6D40762B77088421884089048C2091029202942895089772981099049A049B109C209D02ED
:400F4000A210A504A607A708AE01AF01B080B310B684C0F1C2F2C4F6CA72CCF7CEFAD620E6A0EC103310372083208E20CC30E280022007205A80620283108B208E409F1045
:400F8000A620C030D480D840E220522060019001B202B401D420D640AA20EE808D10E40853805510570258109810A110B010D407D604E80456808702A782D40284809310BD
:400FC000AB80AE80B310EC01020404409E04AA04C0C0E880A840EC2060806710864093109880D803128076408E809A40C408DE04E202100211011A021B011C021D01000F56
:4010000080840000400000000601000000000000000102010401040103141400140000008000408484008400000000000C10100010000000003B3B0030000000000F0F00CC
:401040000F00000000000000000000000000000000000000000000000000000000000000000000000000000000000000000000000000000000000000000000000000000061
:401080000000000000000000000000000000000000000000000000000000000000000000000000000000000000000000000000000000000000000000000000000000000030
:4010C00000000000000000000000000000000000000000000000000000000000000000000000000000000000000000000000000000000000000000000000000000000000F0
:4011000000000000000000000000000000000000000000000000000000000000000000000000000000000000000000000000000000000000000000000000000000000000AF
:40114000000000000000000000000000000000000000000000000000000000000000000000000000000000000000000000000000000000000000000000000000000000006F
:0200000490006A
:0400000000004005B7
:0200000490105A
:04000000BC90ACAF55
:0200000490303A
:02000000F28884
:0200000490402A
:4000000000000000000000000000000000000000000000000000000000000000000000000000000000000000000000000000000000000000000000000000000000000000C0
:400040000000000000000000000000000000000000000000000000000000000000000000000000000000000000000000000000000000000000000000000000000000000080
:400080000000000000000000000000000000000000000000000000000000000000000000000000000000000000000000000000000000000000000000000000000000000040
:4000C0000000000000000000000000000000000000000000000000000000000000000000000000000000000000000000000000000000000000000000000000000000000000
:0200000490501A
:0C00000000012E16106900012E3802F1DC
:00000001FF